{
  "_format": "hh-sol-artifact-1",
  "contractName": "PaperReview",
  "sourceName": "contracts/PaperReview.sol",
  "abi": [
    {
      "inputs": [],
      "stateMutability": "nonpayable",
      "type": "constructor"
    },
    {
      "inputs": [
        {
          "internalType": "address",
          "name": "owner",
          "type": "address"
        }
      ],
      "name": "OwnableInvalidOwner",
      "type": "error"
    },
    {
      "inputs": [
        {
          "internalType": "address",
          "name": "account",
          "type": "address"
        }
      ],
      "name": "OwnableUnauthorizedAccount",
      "type": "error"
    },
    {
      "anonymous": false,
      "inputs": [
        {
          "indexed": true,
          "internalType": "address",
          "name": "previousOwner",
          "type": "address"
        },
        {
          "indexed": true,
          "internalType": "address",
          "name": "newOwner",
          "type": "address"
        }
      ],
      "name": "OwnershipTransferred",
      "type": "event"
    },
    {
      "anonymous": false,
      "inputs": [
        {
          "indexed": true,
          "internalType": "uint256",
          "name": "paperId",
          "type": "uint256"
        },
        {
          "indexed": false,
          "internalType": "string",
          "name": "cid",
          "type": "string"
        },
        {
          "indexed": false,
          "internalType": "address",
          "name": "author",
          "type": "address"
        }
      ],
      "name": "PaperSubmitted",
      "type": "event"
    },
    {
      "anonymous": false,
      "inputs": [
        {
          "indexed": true,
          "internalType": "uint256",
          "name": "paperId",
          "type": "uint256"
        },
        {
          "indexed": false,
          "internalType": "address",
          "name": "reviewer",
          "type": "address"
        },
        {
          "indexed": false,
          "internalType": "uint256",
          "name": "amount",
          "type": "uint256"
        }
      ],
      "name": "PaymentReleased",
      "type": "event"
    },
    {
      "anonymous": false,
      "inputs": [
        {
          "indexed": true,
          "internalType": "uint256",
          "name": "paperId",
          "type": "uint256"
        },
        {
          "indexed": false,
          "internalType": "address",
          "name": "reviewer",
          "type": "address"
        },
        {
          "indexed": false,
          "internalType": "uint8",
          "name": "score",
          "type": "uint8"
        },
        {
          "indexed": false,
          "internalType": "bool",
          "name": "passed",
          "type": "bool"
        }
      ],
      "name": "ReviewEvaluated",
      "type": "event"
    },
    {
      "anonymous": false,
      "inputs": [
        {
          "indexed": true,
          "internalType": "uint256",
          "name": "paperId",
          "type": "uint256"
        },
        {
          "indexed": false,
          "internalType": "address",
          "name": "reviewer",
          "type": "address"
        },
        {
          "indexed": false,
          "internalType": "string",
          "name": "reviewCid",
          "type": "string"
        }
      ],
      "name": "ReviewSubmitted",
      "type": "event"
    },
    {
      "anonymous": false,
      "inputs": [
        {
          "indexed": true,
          "internalType": "uint256",
          "name": "paperId",
          "type": "uint256"
        },
        {
          "indexed": false,
          "internalType": "address[3]",
          "name": "reviewers",
          "type": "address[3]"
        }
      ],
      "name": "ReviewersAssigned",
      "type": "event"
    },
    {
      "inputs": [],
      "name": "PASS_SCORE",
      "outputs": [
        {
          "internalType": "uint8",
          "name": "",
          "type": "uint8"
        }
      ],
      "stateMutability": "view",
      "type": "function"
    },
    {
      "inputs": [],
      "name": "REVIEWER_PAYMENT",
      "outputs": [
        {
          "internalType": "uint256",
          "name": "",
          "type": "uint256"
        }
      ],
      "stateMutability": "view",
      "type": "function"
    },
    {
      "inputs": [],
      "name": "TOTAL_ESCROW",
      "outputs": [
        {
          "internalType": "uint256",
          "name": "",
          "type": "uint256"
        }
      ],
      "stateMutability": "view",
      "type": "function"
    },
    {
      "inputs": [
        {
          "internalType": "uint256",
          "name": "_paperId",
          "type": "uint256"
        },
        {
          "internalType": "address",
          "name": "_reviewer",
          "type": "address"
        },
        {
          "internalType": "uint8",
          "name": "_score",
          "type": "uint8"
        }
      ],
      "name": "evaluateReview",
      "outputs": [],
      "stateMutability": "nonpayable",
      "type": "function"
    },
    {
      "inputs": [
        {
          "internalType": "uint256",
          "name": "_paperId",
          "type": "uint256"
        }
      ],
      "name": "getPaper",
      "outputs": [
        {
          "components": [
            {
              "internalType": "uint256",
              "name": "id",
              "type": "uint256"
            },
            {
              "internalType": "string",
              "name": "cid",
              "type": "string"
            },
            {
              "internalType": "address",
              "name": "author",
              "type": "address"
            },
            {
              "internalType": "address[3]",
              "name": "reviewers",
              "type": "address[3]"
            },
            {
              "internalType": "uint256",
              "name": "reviewCount",
              "type": "uint256"
            },
            {
              "internalType": "bool",
              "name": "isCompleted",
              "type": "bool"
            },
            {
              "internalType": "bool",
              "name": "isFunded",
              "type": "bool"
            }
          ],
          "internalType": "struct PaperReview.Paper",
          "name": "",
          "type": "tuple"
        }
      ],
      "stateMutability": "view",
      "type": "function"
    },
    {
      "inputs": [
        {
          "internalType": "address",
          "name": "",
          "type": "address"
        }
      ],
      "name": "isReviewer",
      "outputs": [
        {
          "internalType": "bool",
          "name": "",
          "type": "bool"
        }
      ],
      "stateMutability": "view",
      "type": "function"
    },
    {
      "inputs": [],
      "name": "owner",
      "outputs": [
        {
          "internalType": "address",
          "name": "",
          "type": "address"
        }
      ],
      "stateMutability": "view",
      "type": "function"
    },
    {
      "inputs": [],
      "name": "paperCounter",
      "outputs": [
        {
          "internalType": "uint256",
          "name": "",
          "type": "uint256"
        }
      ],
      "stateMutability": "view",
      "type": "function"
    },
    {
      "inputs": [
        {
          "internalType": "uint256",
          "name": "",
          "type": "uint256"
        }
      ],
      "name": "papers",
      "outputs": [
        {
          "internalType": "uint256",
          "name": "id",
          "type": "uint256"
        },
        {
          "internalType": "string",
          "name": "cid",
          "type": "string"
        },
        {
          "internalType": "address",
          "name": "author",
          "type": "address"
        },
        {
          "internalType": "uint256",
          "name": "reviewCount",
          "type": "uint256"
        },
        {
          "internalType": "bool",
          "name": "isCompleted",
          "type": "bool"
        },
        {
          "internalType": "bool",
          "name": "isFunded",
          "type": "bool"
        }
      ],
      "stateMutability": "view",
      "type": "function"
    },
    {
      "inputs": [],
      "name": "registerReviewer",
      "outputs": [],
      "stateMutability": "nonpayable",
      "type": "function"
    },
    {
      "inputs": [],
      "name": "renounceOwnership",
      "outputs": [],
      "stateMutability": "nonpayable",
      "type": "function"
    },
    {
      "inputs": [
        {
          "internalType": "uint256",
          "name": "",
          "type": "uint256"
        }
      ],
      "name": "reviewerPool",
      "outputs": [
        {
          "internalType": "address",
          "name": "",
          "type": "address"
        }
      ],
      "stateMutability": "view",
      "type": "function"
    },
    {
      "inputs": [
        {
          "internalType": "uint256",
          "name": "",
          "type": "uint256"
        },
        {
          "internalType": "address",
          "name": "",
          "type": "address"
        }
      ],
      "name": "reviews",
      "outputs": [
        {
          "internalType": "address",
          "name": "reviewer",
          "type": "address"
        },
        {
          "internalType": "string",
          "name": "reviewCid",
          "type": "string"
        },
        {
          "internalType": "uint8",
          "name": "score",
          "type": "uint8"
        },
        {
          "internalType": "bool",
          "name": "isScored",
          "type": "bool"
        },
        {
          "internalType": "bool",
          "name": "isPaid",
          "type": "bool"
        }
      ],
      "stateMutability": "view",
      "type": "function"
    },
    {
      "inputs": [
        {
          "internalType": "string",
          "name": "_cid",
          "type": "string"
        }
      ],
      "name": "submitPaper",
      "outputs": [],
      "stateMutability": "payable",
      "type": "function"
    },
    {
      "inputs": [
        {
          "internalType": "uint256",
          "name": "_paperId",
          "type": "uint256"
        },
        {
          "internalType": "string",
          "name": "_reviewCid",
          "type": "string"
        }
      ],
      "name": "submitReview",
      "outputs": [],
      "stateMutability": "nonpayable",
      "type": "function"
    },
    {
      "inputs": [
        {
          "internalType": "address",
          "name": "newOwner",
          "type": "address"
        }
      ],
      "name": "transferOwnership",
      "outputs": [],
      "stateMutability": "nonpayable",
      "type": "function"
    }
  ],
  "bytecode": "0x60806040523480156200001157600080fd5b5033600073ffffffffffffffffffffffffffffffffffffffff168173ffffffffffffffffffffffffffffffffffffffff1603620000885760006040517f1e4fbdf70000000000000000000000000000000000000000000000000000000081526004016200007f9190620001a9565b60405180910390fd5b6200009981620000a060201b60201c565b50620001c6565b60008060009054906101000a900473ffffffffffffffffffffffffffffffffffffffff169050816000806101000a81548173ffffffffffffffffffffffffffffffffffffffff021916908373ffffffffffffffffffffffffffffffffffffffff1602179055508173ffffffffffffffffffffffffffffffffffffffff168173ffffffffffffffffffffffffffffffffffffffff167f8be0079c531659141344cd1fd0a4f28419497f9722a3daafe3b4186f6b6457e060405160405180910390a35050565b600073ffffffffffffffffffffffffffffffffffffffff82169050919050565b6000620001918262000164565b9050919050565b620001a38162000184565b82525050565b6000602082019050620001c0600083018462000198565b92915050565b61267080620001d66000396000f3fe6080604052600436106100f35760003560e01c8063ba26959f1161008a578063de7cc07f11610059578063de7cc07f14610321578063eb597e361461033d578063f2fde38b14610368578063fdc6258a14610391576100f3565b8063ba26959f14610263578063ba279a291461028c578063c12804fb146102b5578063dc964953146102f6576100f3565b80635e775a27116100c65780635e775a27146101b4578063715018a6146101f65780638da5cb5b1461020d578063a227f5d014610238576100f3565b806307993f04146100f85780631126ab64146101355780631749f05f1461014c57806319f102ec14610177575b600080fd5b34801561010457600080fd5b5061011f600480360381019061011a9190611577565b6103ce565b60405161012c91906117d9565b60405180910390f35b34801561014157600080fd5b5061014a6105a8565b005b34801561015857600080fd5b506101616106f2565b60405161016e919061180a565b60405180910390f35b34801561018357600080fd5b5061019e60048036038101906101999190611577565b6106f8565b6040516101ab9190611834565b60405180910390f35b3480156101c057600080fd5b506101db60048036038101906101d69190611577565b610737565b6040516101ed969594939291906118a8565b60405180910390f35b34801561020257600080fd5b5061020b610835565b005b34801561021957600080fd5b50610222610849565b60405161022f9190611834565b60405180910390f35b34801561024457600080fd5b5061024d610872565b60405161025a919061192c565b60405180910390f35b34801561026f57600080fd5b5061028a6004803603810190610285919061199f565b610877565b005b34801561029857600080fd5b506102b360048036038101906102ae9190611b27565b610a15565b005b3480156102c157600080fd5b506102dc60048036038101906102d79190611b83565b610c14565b6040516102ed959493929190611bc3565b60405180910390f35b34801561030257600080fd5b5061030b610d26565b604051610318919061180a565b60405180910390f35b61033b60048036038101906103369190611c1d565b610d3d565b005b34801561034957600080fd5b50610352610e8c565b60405161035f919061180a565b60405180910390f35b34801561037457600080fd5b5061038f600480360381019061038a9190611c66565b610e97565b005b34801561039d57600080fd5b506103b860048036038101906103b39190611c66565b610f1d565b6040516103c59190611c93565b60405180910390f35b6103d66114ae565b600260008381526020019081526020016000206040518060e00160405290816000820154815260200160018201805461040e90611cdd565b80601f016020809104026020016040519081016040528092919081815260200182805461043a90611cdd565b80156104875780601f1061045c57610100808354040283529160200191610487565b820191906000526020600020905b81548152906001019060200180831161046a57829003601f168201915b505050505081526020016002820160009054906101000a900473ffffffffffffffffffffffffffffffffffffffff1673ffffffffffffffffffffffffffffffffffffffff1673ffffffffffffffffffffffffffffffffffffffff16815260200160038201600380602002604051908101604052809291908260038015610558576020028201915b8160009054906101000a900473ffffffffffffffffffffffffffffffffffffffff1673ffffffffffffffffffffffffffffffffffffffff168152602001906001019080831161050e575b50505050508152602001600682015481526020016007820160009054906101000a900460ff161515151581526020016007820160019054906101000a900460ff1615151515815250509050919050565b600560003373ffffffffffffffffffffffffffffffffffffffff1673ffffffffffffffffffffffffffffffffffffffff16815260200190815260200160002060009054906101000a900460ff1615610635576040517f08c379a000000000000000000000000000000000000000000000000000000000815260040161062c90611d5a565b60405180910390fd5b6004339080600181540180825580915050600190039060005260206000200160009091909190916101000a81548173ffffffffffffffffffffffffffffffffffffffff021916908373ffffffffffffffffffffffffffffffffffffffff1602179055506001600560003373ffffffffffffffffffffffffffffffffffffffff1673ffffffffffffffffffffffffffffffffffffffff16815260200190815260200160002060006101000a81548160ff021916908315150217905550565b60015481565b6004818154811061070857600080fd5b906000526020600020016000915054906101000a900473ffffffffffffffffffffffffffffffffffffffff1681565b600260205280600052604060002060009150905080600001549080600101805461076090611cdd565b80601f016020809104026020016040519081016040528092919081815260200182805461078c90611cdd565b80156107d95780601f106107ae576101008083540402835291602001916107d9565b820191906000526020600020905b8154815290600101906020018083116107bc57829003601f168201915b5050505050908060020160009054906101000a900473ffffffffffffffffffffffffffffffffffffffff16908060060154908060070160009054906101000a900460ff16908060070160019054906101000a900460ff16905086565b61083d610f3d565b6108476000610fc4565b565b60008060009054906101000a900473ffffffffffffffffffffffffffffffffffffffff16905090565b604181565b61087f610f3d565b60006003600085815260200190815260200160002060008473ffffffffffffffffffffffffffffffffffffffff1673ffffffffffffffffffffffffffffffffffffffff168152602001908152602001600020905060008160010180546108e490611cdd565b905011610926576040517f08c379a000000000000000000000000000000000000000000000000000000000815260040161091d90611dc6565b60405180910390fd5b8060020160019054906101000a900460ff1615610978576040517f08c379a000000000000000000000000000000000000000000000000000000000815260040161096f90611e32565b60405180910390fd5b818160020160006101000a81548160ff021916908360ff16021790555060018160020160016101000a81548160ff0219169083151502179055506000604160ff168360ff1610159050847f6e66fcfbe7a1949cb23b9a815d73b27b195016faff281b0c0e575257c1e574a18585846040516109f593929190611e52565b60405180910390a28015610a0e57610a0d8585611088565b5b5050505050565b60006002600084815260200190815260200160002090506000805b6003811015610abf573373ffffffffffffffffffffffffffffffffffffffff16836003018260038110610a6657610a65611e89565b5b0160009054906101000a900473ffffffffffffffffffffffffffffffffffffffff1673ffffffffffffffffffffffffffffffffffffffff1603610aac5760019150610abf565b8080610ab790611ee7565b915050610a30565b5080610b00576040517f08c379a0000000000000000000000000000000000000000000000000000000008152600401610af790611f7b565b60405180910390fd5b60006003600086815260200190815260200160002060003373ffffffffffffffffffffffffffffffffffffffff1673ffffffffffffffffffffffffffffffffffffffff16815260200190815260200160002090506000816001018054610b6590611cdd565b905014610ba7576040517f08c379a0000000000000000000000000000000000000000000000000000000008152600401610b9e90611fe7565b60405180910390fd5b83816001019081610bb891906121b3565b50826006016000815480929190610bce90611ee7565b9190505550847ff0906d4d262a532d67cb5e02d3670754cf0804da22ebe7eae7b42feafebee15b3386604051610c05929190612285565b60405180910390a25050505050565b6003602052816000526040600020602052806000526040600020600091509150508060000160009054906101000a900473ffffffffffffffffffffffffffffffffffffffff1690806001018054610c6a90611cdd565b80601f0160208091040260200160405190810160405280929190818152602001828054610c9690611cdd565b8015610ce35780601f10610cb857610100808354040283529160200191610ce3565b820191906000526020600020905b815481529060010190602001808311610cc657829003601f168201915b5050505050908060020160009054906101000a900460ff16908060020160019054906101000a900460ff16908060020160029054906101000a900460ff16905085565b6003662386f26fc10000610d3a91906122b5565b81565b6003662386f26fc10000610d5191906122b5565b341015610d93576040517f08c379a0000000000000000000000000000000000000000000000000000000008152600401610d8a90612343565b60405180910390fd5b60016000815480929190610da690611ee7565b919050555060006001549050600060026000838152602001908152602001600020905081816000018190555082816001019081610de391906121b3565b50338160020160006101000a81548173ffffffffffffffffffffffffffffffffffffffff021916908373ffffffffffffffffffffffffffffffffffffffff16021790555060018160070160016101000a81548160ff021916908315150217905550817f7772e09d37c320627ccff203429dbde0ef18b55466742b141175899bdead2eda8433604051610e76929190612363565b60405180910390a2610e87826111df565b505050565b662386f26fc1000081565b610e9f610f3d565b600073ffffffffffffffffffffffffffffffffffffffff168173ffffffffffffffffffffffffffffffffffffffff1603610f115760006040517f1e4fbdf7000000000000000000000000000000000000000000000000000000008152600401610f089190611834565b60405180910390fd5b610f1a81610fc4565b50565b60056020528060005260406000206000915054906101000a900460ff1681565b610f456114a6565b73ffffffffffffffffffffffffffffffffffffffff16610f63610849565b73ffffffffffffffffffffffffffffffffffffffff1614610fc257610f866114a6565b6040517f118cdaa7000000000000000000000000000000000000000000000000000000008152600401610fb99190611834565b60405180910390fd5b565b60008060009054906101000a900473ffffffffffffffffffffffffffffffffffffffff169050816000806101000a81548173ffffffffffffffffffffffffffffffffffffffff021916908373ffffffffffffffffffffffffffffffffffffffff1602179055508173ffffffffffffffffffffffffffffffffffffffff168173ffffffffffffffffffffffffffffffffffffffff167f8be0079c531659141344cd1fd0a4f28419497f9722a3daafe3b4186f6b6457e060405160405180910390a35050565b60006003600084815260200190815260200160002060008373ffffffffffffffffffffffffffffffffffffffff1673ffffffffffffffffffffffffffffffffffffffff16815260200190815260200160002090508060020160029054906101000a900460ff161561112e576040517f08c379a0000000000000000000000000000000000000000000000000000000008152600401611125906123df565b60405180910390fd5b60018160020160026101000a81548160ff0219169083151502179055508173ffffffffffffffffffffffffffffffffffffffff166108fc662386f26fc100009081150290604051600060405180830381858888f19350505050158015611198573d6000803e3d6000fd5b50827f21d71db5be59bb9fa133895586b7404307dd33fb93b16db09dc6f1d9d7d231b083662386f26fc100006040516111d29291906123ff565b60405180910390a2505050565b60036004805490501015611228576040517f08c379a000000000000000000000000000000000000000000000000000000000815260040161121f90612474565b60405180910390fd5b6000423360405160200161123d9291906124fd565b6040516020818303038152906040528051906020012060001c905061126061150b565b60005b600381101561146857600060048054905082856112809190612529565b61128a919061258c565b9050600481815481106112a05761129f611e89565b5b9060005260206000200160009054906101000a900473ffffffffffffffffffffffffffffffffffffffff168383600381106112de576112dd611e89565b5b602002019073ffffffffffffffffffffffffffffffffffffffff16908173ffffffffffffffffffffffffffffffffffffffff168152505082826003811061132857611327611e89565b5b602002015160026000878152602001908152602001600020600301836003811061135557611354611e89565b5b0160006101000a81548173ffffffffffffffffffffffffffffffffffffffff021916908373ffffffffffffffffffffffffffffffffffffffff1602179055508282600381106113a7576113a6611e89565b5b60200201516003600087815260200190815260200160002060008585600381106113d4576113d3611e89565b5b602002015173ffffffffffffffffffffffffffffffffffffffff1673ffffffffffffffffffffffffffffffffffffffff16815260200190815260200160002060000160006101000a81548173ffffffffffffffffffffffffffffffffffffffff021916908373ffffffffffffffffffffffffffffffffffffffff16021790555050808061146090611ee7565b915050611263565b50827f82be85e47106253151eb3942e9944297a9fd59c0b7c3b1c3415da3ce67de889282604051611499919061261f565b60405180910390a2505050565b600033905090565b6040518060e001604052806000815260200160608152602001600073ffffffffffffffffffffffffffffffffffffffff1681526020016114ec61150b565b8152602001600081526020016000151581526020016000151581525090565b6040518060600160405280600390602082028036833780820191505090505090565b6000604051905090565b600080fd5b600080fd5b6000819050919050565b61155481611541565b811461155f57600080fd5b50565b6000813590506115718161154b565b92915050565b60006020828403121561158d5761158c611537565b5b600061159b84828501611562565b91505092915050565b6115ad81611541565b82525050565b600081519050919050565b600082825260208201905092915050565b60005b838110156115ed5780820151818401526020810190506115d2565b60008484015250505050565b6000601f19601f8301169050919050565b6000611615826115b3565b61161f81856115be565b935061162f8185602086016115cf565b611638816115f9565b840191505092915050565b600073ffffffffffffffffffffffffffffffffffffffff82169050919050565b600061166e82611643565b9050919050565b61167e81611663565b82525050565b600060039050919050565b600081905092915050565b6000819050919050565b60006116b08383611675565b60208301905092915050565b6000602082019050919050565b6116d281611684565b6116dc818461168f565b92506116e78261169a565b8060005b838110156117185781516116ff87826116a4565b965061170a836116bc565b9250506001810190506116eb565b505050505050565b60008115159050919050565b61173581611720565b82525050565b60006101208301600083015161175460008601826115a4565b506020830151848203602086015261176c828261160a565b91505060408301516117816040860182611675565b50606083015161179460608601826116c9565b5060808301516117a760c08601826115a4565b5060a08301516117ba60e086018261172c565b5060c08301516117ce61010086018261172c565b508091505092915050565b600060208201905081810360008301526117f3818461173b565b905092915050565b61180481611541565b82525050565b600060208201905061181f60008301846117fb565b92915050565b61182e81611663565b82525050565b60006020820190506118496000830184611825565b92915050565b600082825260208201905092915050565b600061186b826115b3565b611875818561184f565b93506118858185602086016115cf565b61188e816115f9565b840191505092915050565b6118a281611720565b82525050565b600060c0820190506118bd60008301896117fb565b81810360208301526118cf8188611860565b90506118de6040830187611825565b6118eb60608301866117fb565b6118f86080830185611899565b61190560a0830184611899565b979650505050505050565b600060ff82169050919050565b61192681611910565b82525050565b6000602082019050611941600083018461191d565b92915050565b61195081611663565b811461195b57600080fd5b50565b60008135905061196d81611947565b92915050565b61197c81611910565b811461198757600080fd5b50565b60008135905061199981611973565b92915050565b6000806000606084860312156119b8576119b7611537565b5b60006119c686828701611562565b93505060206119d78682870161195e565b92505060406119e88682870161198a565b9150509250925092565b600080fd5b600080fd5b7f4e487b7100000000000000000000000000000000000000000000000000000000600052604160045260246000fd5b611a34826115f9565b810181811067ffffffffffffffff82111715611a5357611a526119fc565b5b80604052505050565b6000611a6661152d565b9050611a728282611a2b565b919050565b600067ffffffffffffffff821115611a9257611a916119fc565b5b611a9b826115f9565b9050602081019050919050565b82818337600083830152505050565b6000611aca611ac584611a77565b611a5c565b905082815260208101848484011115611ae657611ae56119f7565b5b611af1848285611aa8565b509392505050565b600082601f830112611b0e57611b0d6119f2565b5b8135611b1e848260208601611ab7565b91505092915050565b60008060408385031215611b3e57611b3d611537565b5b6000611b4c85828601611562565b925050602083013567ffffffffffffffff811115611b6d57611b6c61153c565b5b611b7985828601611af9565b9150509250929050565b60008060408385031215611b9a57611b99611537565b5b6000611ba885828601611562565b9250506020611bb98582860161195e565b9150509250929050565b600060a082019050611bd86000830188611825565b8181036020830152611bea8187611860565b9050611bf9604083018661191d565b611c066060830185611899565b611c136080830184611899565b9695505050505050565b600060208284031215611c3357611c32611537565b5b600082013567ffffffffffffffff811115611c5157611c5061153c565b5b611c5d84828501611af9565b91505092915050565b600060208284031215611c7c57611c7b611537565b5b6000611c8a8482850161195e565b91505092915050565b6000602082019050611ca86000830184611899565b92915050565b7f4e487b7100000000000000000000000000000000000000000000000000000000600052602260045260246000fd5b60006002820490506001821680611cf557607f821691505b602082108103611d0857611d07611cae565b5b50919050565b7f416c726561647920726567697374657265640000000000000000000000000000600082015250565b6000611d4460128361184f565b9150611d4f82611d0e565b602082019050919050565b60006020820190508181036000830152611d7381611d37565b9050919050565b7f4e6f2072657669657720746f206576616c756174650000000000000000000000600082015250565b6000611db060158361184f565b9150611dbb82611d7a565b602082019050919050565b60006020820190508181036000830152611ddf81611da3565b9050919050565b7f416c72656164792073636f726564000000000000000000000000000000000000600082015250565b6000611e1c600e8361184f565b9150611e2782611de6565b602082019050919050565b60006020820190508181036000830152611e4b81611e0f565b9050919050565b6000606082019050611e676000830186611825565b611e74602083018561191d565b611e816040830184611899565b949350505050565b7f4e487b7100000000000000000000000000000000000000000000000000000000600052603260045260246000fd5b7f4e487b7100000000000000000000000000000000000000000000000000000000600052601160045260246000fd5b6000611ef282611541565b91507fffffffffffffffffffffffffffffffffffffffffffffffffffffffffffffffff8203611f2457611f23611eb8565b5b600182019050919050565b7f4e6f7420616e2061737369676e65642072657669657765720000000000000000600082015250565b6000611f6560188361184f565b9150611f7082611f2f565b602082019050919050565b60006020820190508181036000830152611f9481611f58565b9050919050565b7f416c7265616479207375626d6974746564000000000000000000000000000000600082015250565b6000611fd160118361184f565b9150611fdc82611f9b565b602082019050919050565b6000602082019050818103600083015261200081611fc4565b9050919050565b60008190508160005260206000209050919050565b60006020601f8301049050919050565b600082821b905092915050565b6000600883026120697fffffffffffffffffffffffffffffffffffffffffffffffffffffffffffffffff8261202c565b612073868361202c565b95508019841693508086168417925050509392505050565b6000819050919050565b60006120b06120ab6120a684611541565b61208b565b611541565b9050919050565b6000819050919050565b6120ca83612095565b6120de6120d6826120b7565b848454612039565b825550505050565b600090565b6120f36120e6565b6120fe8184846120c1565b505050565b5b81811015612122576121176000826120eb565b600181019050612104565b5050565b601f8211156121675761213881612007565b6121418461201c565b81016020851015612150578190505b61216461215c8561201c565b830182612103565b50505b505050565b600082821c905092915050565b600061218a6000198460080261216c565b1980831691505092915050565b60006121a38383612179565b9150826002028217905092915050565b6121bc826115b3565b67ffffffffffffffff8111156121d5576121d46119fc565b5b6121df8254611cdd565b6121ea828285612126565b600060209050601f83116001811461221d576000841561220b578287015190505b6122158582612197565b86555061227d565b601f19841661222b86612007565b60005b828110156122535784890151825560018201915060208501945060208101905061222e565b86831015612270578489015161226c601f891682612179565b8355505b6001600288020188555050505b505050505050565b600060408201905061229a6000830185611825565b81810360208301526122ac8184611860565b90509392505050565b60006122c082611541565b91506122cb83611541565b92508282026122d981611541565b915082820484148315176122f0576122ef611eb8565b5b5092915050565b7f496e73756666696369656e7420657363726f7700000000000000000000000000600082015250565b600061232d60138361184f565b9150612338826122f7565b602082019050919050565b6000602082019050818103600083015261235c81612320565b9050919050565b6000604082019050818103600083015261237d8185611860565b905061238c6020830184611825565b9392505050565b7f416c726561647920706169640000000000000000000000000000000000000000600082015250565b60006123c9600c8361184f565b91506123d482612393565b602082019050919050565b600060208201905081810360008301526123f8816123bc565b9050919050565b60006040820190506124146000830185611825565b61242160208301846117fb565b9392505050565b7f4e6f7420656e6f75676820726576696577657273000000000000000000000000600082015250565b600061245e60148361184f565b915061246982612428565b602082019050919050565b6000602082019050818103600083015261248d81612451565b9050919050565b6000819050919050565b6124af6124aa82611541565b612494565b82525050565b60008160601b9050919050565b60006124cd826124b5565b9050919050565b60006124df826124c2565b9050919050565b6124f76124f282611663565b6124d4565b82525050565b6000612509828561249e565b60208201915061251982846124e6565b6014820191508190509392505050565b600061253482611541565b915061253f83611541565b925082820190508082111561255757612556611eb8565b5b92915050565b7f4e487b7100000000000000000000000000000000000000000000000000000000600052601260045260246000fd5b600061259782611541565b91506125a283611541565b9250826125b2576125b161255d565b5b828206905092915050565b600081905092915050565b6125d181611684565b6125db81846125bd565b92506125e68261169a565b8060005b838110156126175781516125fe87826116a4565b9650612609836116bc565b9250506001810190506125ea565b505050505050565b600060608201905061263460008301846125c8565b9291505056fea2646970667358221220b081c1f052bd360ad4361950a897516a3b6bdfb981a37cbe60dae551be68be0764736f6c63430008140033",
  "linkReferences": {},
  "deployedLinkReferences": {}
}